:100000000C94B3030C94D0030C94D0030C94D00341
:100010000C94D0030C94D0030C94D0030C94D00314
:100020000C94D0030C94D0030C945F190C94A11879
:100030000C9458230C94D0030C94D0030C94D0034C
:100040000C94D0030C94D0030C94D0030C94D003E4
:100050000C94D0030C94691A0C94D0030C94D00324
:100060000C94D0030C94D0030C94D0030C94D003C4
:100070000C94D0030C94D0030C94D0030C94D003B4
:100080000C94D0030C94D0030C94D0030C94D003A4
:100090000C94D0030C94D0030C94D0030C94D00394
:1000A0000C94D0030C94D0030C94D003C904CD0459
:1000B000D804E504B204B804BD04C20494054C0697
:1000C000510656065B06600665066A066F067406EC
:1000D0007906A205A40580068206FC06FC06FC063D
:1000E000FC06FC06FC0667076707960796071208DA
:1000F0002F092F092F093008A408B508B508320DBB
:10010000370D410D350D3A0D3F0D3D0D6B0E6E0E49
:10011000710E740E770E7A0E7D0EB916E0168918E0
:10012000E01689182C174F17891844185418010223
:10013000E00102E60101060103E60103E00001021D
:10014000E20102E30101280103E30103E2000102ED
:10015000E20102E001010F0103E00103E2000102FC
:10016000E20102E001010D0103E00103E2000501EB
:100170000980A101850319012AB700150126B700DE
:10018000950175108100C0050C0901A101850419B4
:10019000012AA002150126A002950175108100C058
:1001A00005010906A1018506050719E029E71500E3
:1001B00025019508750181020507190029EF150031
:1001C000250195F07501810205081901290595059C
:1001D00075019102950175039101C00660FF0961E7
:1001E000A1010962150026FF00952075088102090A
:1001F00063150026FF00952075089102C0050109CE
:1002000006A101050719E029E715002501950875E4
:100210000181029501750881010507190029FF1563
:100220000026FF00950675088100050819012905BB
:100230001500250195057501910295017503910140
:10024000C009025B00030100A0FA090400000103D9
:100250000101000921110100012244000705810369
:100260000800010904010002030000000921110136
:100270000001222200070582032000010705030375
:1002800020000109040200010300000009211101FE
:100290000001226D00070584032000011201000205
:1002A0000000000897327649010001020001200396
:1002B0004500720067006F0044006F007800200066
:1002C00045005A00200047006C006F0077000000D6
:1002D00028035A00530041002000540065006300C9
:1002E00068006E006F006C006F00670079002000EE
:1002F0004C00610062007300000004030904520115
:1003000000572B00E100354100001E00140004419D
:100310001D0034004D001F001A0016241B00737CC2
:100320002800200008000721060050002A002100B4
:100330000157092803574F004A00220002570A00BC
:1003400005000000E300500061520000000F0000B3
:1003500065244F00C252000000070000E2002300A5
:100360001C000B00110000002921240018000D289A
:10037000100052004B0025000C000E3136005100D9
:100380002C00260012000F3437002F00C152270026
:1003900013003341045730004E002D002E02342844
:1003A000E5002152000029000100010001000100C8
:1003B00000003A001E02010020023502057E3B00CB
:1003C0001F02210224023102047E3C002F02260279
:1003D0002F002D0228783D00300227023000010056
:1003E000037E055722022E0035000000217801000F
:1003F000010000000100000027780100010000005A
:100400000100000020783F0052005100240200004B
:10041000027E4000240021001E000100017E4100F8
:10042000250022001F00010023784200260023003F
:1004300020002700010043002502010031002E00AA
:100440002478440045000100010001000000010083
:100450000100010001000100000001000100010095
:1004600001000100010001000100067E0100010001
:10047000010001000C050E05097E010001000100CC
:100480000100077E01000100010001000100087E5B
:100490000100000001000100010000000100000057
:1004A0000100010001000000010000000100010046
:1004B0000100010001000000010001003E08210AC6
:1004C000010001000100010004051F0A01000100F4
:1004D00001000100180501000100010001000100F8
:1004E0000100010001000100010001000100010004
:1004F000010001000000004434540074648400557D
:100500004565008575950036264600665676009648
:1005100086A6003727470077678700382848008875
:1005200078980039294900695979009989A9003AD0
:100530002A4A006A5A7A003B2B4B006B5B7B004CCB
:100540003C5C007C6C8C005D4D6D008D7D9D003EA3
:100550002E4E006E5E7E0144345401746484015555
:1005600045650185759501362646016656760196E4
:1005700086A6013727470177678701382848018811
:1005800078980139294901695979019989A9013A6C
:100590002A4A016A5A7A013B2B4B016B5B7B014C67
:1005A0003C5C017C6C8C015D4D6D018D7D9D013E3F
:1005B0002E4E016E5E7E0000000000000000000074
:1005C000000000000000000000000000000000002B
:1005D000000000000000000000007E0F00D4FFFFBC
:1005E000FFC70000007800000000000000002A2B78
:1005F00028000000000000000000000000000000D3
:100600000029000000002C1E34202122243426273B
:10061000252E362D3738271E1F202122232425265C
:100620003333362E37381F0405060708090A0B0C2A
:100630000D0E0F101112131415161718191A1B1C72
:100640001D2F3130232D350405060708090A0B0C30
:100650000D0E0F101112131415161718191A1B1C52
:100660001D2F3130354C0001010101010101010153
:100670000202020202020202020303030303030353
:100680000304040404040404050505050506060620
:100690000606070707070708080808090909090ADD
:1006A0000A0A0B0B0B0C0C0C0D0D0D0E0E0E0F0F82
:1006B0000F10101111111212131314141515161610
:1006C0001717181819191A1A1B1B1C1D1D1E1E1F7F
:1006D0002020212222232424252626272829292ACE
:1006E0002B2C2D2D2E2F30313232333435363738F6
:1006F000393A3B3C3D3E3F404142434445464748F2
:10070000494A4C4D4E4F50515354555658595A5BC7
:100710005D5E5F616264656668696B6C6D6F707267
:10072000737577787A7B7D7E8082838587888A8CD3
:100730008E8F91939596989A9C9EA0A2A3A5A7A907
:10074000ABADAFB1B3B5B7BABCBEC0C2C4C6C9CBFE
:10075000CDCFD1D4D6D8DBDDDFE2E4E7E9EBEEF0B4
:10076000F3F5F8FAFDFF11241FBECFEFDAE0DEBF8C
:10077000CDBF12E0A0E0B1E0EAE0F7E602C00590EC
:100780000D92AC3BB107D9F726E0ACEBB2E001C06B
:100790001D92AC32B207E1F70E948E250C94833390
:1007A0000C940000A0E0B0E0E8EDF3E00C94AC3174
:1007B000DC0114962C91222309F490C58C0161E090
:1007C0000E94390CEC01F8018581882399F1809110
:1007D000B6059091B705009709F46AC5C817D907FF
:1007E00009F466C5992744E0880F991F4A95E1F7F7
:1007F000FC01E85EFE4F2081246020838D5E9E4FC9
:10080000DC01CD93DC930E9454241092B50561E085
:10081000C8010E94390CEC018115BEE79B0771F0FD
:100820008130EEE79E0709F44BC08032984709F00B
:100830008BC06AC0C115BEE7DB07E9F5D801159684
:100840008C91882309F444C59091C10581E0890FFA
:100850008770987F853020F4892B8093C10502C072
:100860009093C1058091C1058770BFEF8B9FC00138
:10087000112495958795959587959927909389004B
:100880008093880090938B0080938A0090938D00D2
:1008900080938C004091C1055091C2056091C305C1
:1008A0007091C4058FE090E00E9429328091D305B9
:1008B0000E941C0D0DC5C130EEE7DE0709F03FC0F8
:1008C000F8018581882309F406C58091C10583FB61
:1008D000222720F991E0922790FB83F98093C105AC
:1008E000992329F040E060E080E00E941C0F4091D5
:1008F000C1055091C2056091C3057091C4058FE098
:1009000090E00E942932E7C4D80115968C91882383
:1009100009F472C29091250680911F069F3F59F4F9
:1009200010922506816080931F0640E060E080E021
:100930000E941C0F61C29FEF90932506FFC0C0323A
:10094000F8E7DF0709F458C2FE01E250FE47E8303D
:10095000F10508F045C0EA5AFF4FD80115968C9171
:100960000C944F32882309F440C08EE591E00EC00C
:100970008823D9F18EE491E009C08823B1F18EE398
:1009800091E004C0882389F18EE291E00E94F12A6F
:100990002CC0882309F430C2D5C0882309F42CC2A6
:1009A00081E00E94FF2440E86FEF86E590E00AC0F6
:1009B000882309F421C281E00E94FF244FEF6FEFEA
:1009C0008CEA90E00E94E12A17C2882309F414C23D
:1009D00081E00E94FF244FEF6FEF8BE190E0F2CFB8
:1009E000C337FCE7DF0709F4B3C08091B4059E016B
:1009F00037556901882309F4C9C0F0909903E09044
:100A000049040E94AA1A88579C4E9093F40580933B
:100A1000F305D80115968C91882309F442C48E2DD4
:100A20008F298D7909F07DC0C034B2E5DB07B8F4B9
:100A3000C115E2E5DE0708F0A9C0C115F0E4DF0743
:100A400048F4C11520E2D20740F5C63ED10509F0B1
:100A500046C09CC0C11530E5D307C0F140C0C03EC0
:100A600042E5D407A0F4C03C52E5D50708F08EC09B
:100A7000C03682E5D80798F1C03A92E5D90708F464
:100A800085C0C43BA2E5DA0709F480C028C0CE01C6
:100A900087579C47029718F579C0F8018681807FB7
:100AA000D9F48D2F8F71823171F028F48230C9F51D
:100AB00081EE90E015C0843109F468C0863189F573
:100AC00086EE92E10DC085EE90E00AC0D801169640
:100AD0008C91807F09F45AC0CE01992701C0CE01C4
:100AE0001092B5058832910538F48E31910508F0E1
:100AF0004BC00497B0F00FC08D32910561F020F427
:100B00008A9709F441C00DC08C349105E9F18D320A
:100B10009240D1F106C082E08093B5050E948D1D00
:100B200033C00E947E2432C09091200681E0892744
:100B3000809320061092760180911F068160809339
:100B40001F065AC181E001C085E00E94FF2454C104
:100B5000F8018581882309F44FC18091B405882369
:100B600019F00E947E2448C1109299030E94791DB9
:100B70000E94AA1A88579C4E9093F4058093F3051F
:100B800081E08093B40538C10E948D1D2FEFC216FD
:100B9000D10411F008F06EC06E01DD24C60124E01E
:100BA000880F991F2A95E1F7FC01ED5EFE4F7F014A
:100BB000D80115962C911597FC01E85EFE4F6F0148
:100BC000808120FB80F9808315968C918823A1F188
:100BD0000E94AA1A9093F2058093F105D70112960C
:100BE0008C9112978F5F12968C9312979091B50506
:100BF00080919903892B13968C93139780914904C4
:100C000014968C93149716964D915C9117971E9697
:100C10006D917C911F97C7010E943524F601808158
:100C200081FD03C09C2F8D2F02C090E080E0909347
:100C3000B6058093B7051EC0D7011C964D915C91F7
:100C40001D971E966D917C911F97C7010E943524B8
:100C5000F601808181FF0EC0C7010E943B24809174
:100C6000B6059091B7058C179D0721F41092B70532
:100C70001092B605D80115968C91811145C08091CE
:100C800099038272FE01E052F847E531F105E0F583
:100C9000E25AFF4F0C944F3243E453E26DE473E2A7
:100CA0002CC04DE453E263E473E227C04FE253E209
:100CB00069E373E222C049E353E26FE273E21DC0CD
:100CC00045E153E262E273E218C042E253E265E1B9
:100CD00073E213C04BEF52E268E073E20EC048E0EB
:100CE00053E26BEF72E209C047EF50E265E071E258
:100CF00004C045E051E267EF70E20E9499247CC095
:100D00008DE023CF82E121CFF8018581882309F48A
:100D100086C0C330FCE7DF0709F459C048F4C115A9
:100D20003CE7D307A9F0C130DC4709F456C077C0CF
:100D3000CB355CE7D50709F45BC0CC358CE7D80729
:100D400009F44EC0CA35DC4709F069C081E051C0E2
:100D5000109299030E945D29AFEFB4E3ECE0A1503B
:100D6000B040E040E1F700C00000F89481E08093DB
:100D7000E00080E28093D8001092C9008FE19EE4E9
:100D80000197F1F700C000001DBA109268001CBC6A
:100D900010BE1FBA10927A0010926E0010926F006F
:100DA00010927100109272001092C9001092BC0053
:100DB00014B817B81AB81DB810BA1092BC0015B8FC
:100DC00018B81BB81EB811BA0C94003F15C06FEFCD
:100DD0007FEF80E090E00E9435320E94040D0CC04D
:100DE0008091970382FB882780F991E0892701C0D1
:100DF00080E00E94F91D13C080912804877009F4D7
:100E00006DC2D80115968C91882309F467C2809130
:100E1000970382FF63C282E00E94E21D5FC2D80195
:100E200015968C911597CD91DC91882349F0CE01D0
:100E30000E945428F82E682FCE010E94C42804C0B6
:100E4000CE010E949028F82EBE018F2D0E94C31B58
:100E50000E94E01BD82FC92FC82EF801F580E6802C
:100E6000E2949FE0E92280912804877001F1FF203D
:100E7000F1F08C2F807F803469F080E28D0F883014
:100E8000B0F08C2F807E803229F4F1E0FD1778F4E9
:100E9000EE2069F08091970382FF09C082E00E94F2
:100EA000E21D809128048770DD24D3948111D12C18
:100EB000BC2EB2948FE0B8228B2D90E08C3091053F
:100EC00008F0CDC1FC01ED58FF4F0C944F328C2F30
:100ED000807FCF70882311F0C295C07FFF20B9F0CA
:100EE000CC2309F4AAC180E28D0F883010F0C11024
:100EF00006C090919903C92BC093990305C09091A6
:100F0000B505C92BC093B5050E948D1D96C18D2FC7
:100F10000E949D29CC2309F4A2C1D05E8C2FD83029
:100F200068F1CC2059F10E947F1D2AC08C2F807F50
:100F3000CF70803211F0C295C07FCC2029F021E023
:100F4000C21609F44CC055C08091970382FD1BC0A6
:100F5000FF2069F0CC2339F090919903C92BC093FD
:100F600099030E948D1D80E00E94F62978C180E0DF
:100F70000E949D29CC2309F472C18C2F0E94861DEA
:100F80000E948D1D6CC1FF2081F0EE20B1F131E097
:100F9000E31265C1909149048C2F8923C81709F485
:100FA0005EC1C92BC09349045AC1E11058C18C2FAE
:100FB0000E948C29809149049C2F982329F09C2F12
:100FC00090958923809349048091BE029C2F982399
:100FD00009F445C1C0958C238093BE0240C1FF2017
:100FE00029F041E04E1508F43AC107C0E11037C1BD
:100FF00015C0FF2031F0E11020C18C2F0E949329F1
:101000002EC1EE2059F0D93309F026C15FEF87EEEB
:1010100093E0515080409040E1F71CC18C2F0E941A
:101020008C291DC18C2F86958695837019F081308F
:1010300061F015C1FF2021F08D2F9C2F937002C00D
:1010400080E090E00E94032410C1FF2021F08D2F4A
:101050009C2F937002C080E090E00E94DE2305C1C7
:101060008C2F8370A9F5F110FEC04D2F4295469547
:101070004770440F440F8D2F8F7090E09C01042E19
:1010800001C0220F0A94EAF7D4FF08C08FE090E075
:1010900001C0880F4A95EAF7809501C080E0C695A7
:1010A000C695C370C23069F088F490914A04C1308B
:1010B00019F0822B892302C0922B892B0E94372999
:1010C000D2C0822B90914A048927F8CF822BF6CF89
:1010D000FF2019F08C2F817001C08695882309F4B8
:1010E000C2C04D2F429546954770440F440F8D2F37
:1010F0008F7090E09C01042E01C0220F0A94EAF741
:10110000D4FF08C08FE090E001C0880F4A95EAF74D
:10111000809501C080E0C695C695C370C23059F075
:1011200078F49091D305C13019F0822B892309C03E
:10113000922B892B06C0822B9091D305892701C061
:10114000822B0E94F9288FC0CF70FF2039F08C2F9E
:101150000E942B298D2F0E94932985C08D2F0E94DC
:101160008C298C2F0E941E297EC08D2FA2EFCA16BB
:1011700069F1AC1538F0B0EFCB1659F0E1EFCE16AF
:1011800001F157C0F3EFCF1641F124EFC216A9F0D9
:1011900050C0FF2069F0E11062C0CF7181E090E0A3
:1011A00001C0880FCA95EAF79091D30589271FC01F
:1011B00031E03E1508F453C0F0CF8091970382FDD3
:1011C00019C0FF2029F08C2F8F7126C0FF20D9F382
:1011D0008C2F8F710E941E2942C0FF2039F0CF71E1
:1011E00081E001C0880FCA95EAF701C080E00E9443
:1011F000F92835C0FF2099F0CF718C2F0E942B2940
:101200008091970382FF07C048E0C49FC00111246A
:101210008360809328048C2F0E942B2920C081E0BA
:101220000E94E21D51E05E15D0F482E00E94E21DB2
:1012300016C0FF2021F0EE2031F28D2F95CEEE204A
:1012400039F2893349F48FEF97EEA3E08150904053
:10125000A040E1F700C000008D2F0E949D2988EF7B
:101260008B0D843010F40E942824DD20A9F0809199
:10127000280480FD11C0F801158286958695869513
:101280000E942B29C8010E94D203809128048695D0
:10129000869586950E941E2960E0C8010E94390C3F
:1012A0001DC02FEFC216D10409F008F475CCE7CCAD
:1012B000C1153EE7D30709F4C7CAC1304EE7D407CA
:1012C00009F4FECAC03258E7D50709F03DCB22CB5E
:1012D000C0E0DEE78ACBC1E0DEE787CBCDB7DEB783
:1012E000E9E00C94C8319C013A9521153F4130F555
:1012F000BC0166277270AC01442754709C01222700
:10130000387094FF0FC090FF02C080E101C080E000
:10131000672B09F08062452B09F08064232B79F05C
:1013200080680895892F8170672B09F08260452BB2
:1013300009F08460232B19F08860089580E00895F7
:10134000FC018281813039F4958192FD12C090FFB9
:1013500010C082E00895823039F4858182FD06C094
:1013600080FD06C083E0089586E0089585E0089535
:1013700084E00895CF93DF93EC010E949D29CE0174
:10138000805E9109089710F0209731F4CE010E94F9
:1013900073090E948C2905C0CE010E9473090E9426
:1013A0007B29DF91CF9108958FE39CE90197F1F7B5
:1013B00000C000008091CB02823049F018F48130E7
:1013C00049F00CC0833031F0853021F007C08EE346
:1013D00098E002C08EE390E00E94BA091092CB021E
:1013E00008958FE39CE90197F1F700C00000809118
:1013F000C902823049F018F4813049F00CC08330C2
:1014000031F0853021F007C087E09AE002C088E320
:1014100090E00E94BA091092C90208958FE39CE9F6
:101420000197F1F700C000008091C702823049F0B7
:1014300018F4813049F00CC0833031F0853021F050
:1014400007C089E19AE002C089E190E00E94BA09F0
:101450001092C70208958FE39CE90197F1F700C04D
:1014600000008091C502823049F018F4813049F0C3
:101470000CC0833031F0853021F007C087E196E061
:1014800002C087E190E00E94BA091092C502089557
:101490008FE39CE90197F1F700C000008091C3023F
:1014A000823049F018F4813049F00CC0833031F0BB
:1014B000853021F007C085E19AE002C085E190E027
:1014C0000E94BA091092C30208958FE39CE9019724
:1014D000F1F700C000008091C102823049F018F499
:1014E000813049F00CC0833031F0853021F007C0E5
:1014F00084E490E002C089E290E00E94BA09109270
:10150000C1020895CF93DF93EC01805E91090897A3
:1015100010F0209731F4CE010E9473090E949329A4
:1015200005C0CE010E9473090E9482298C2F0E945F
:10153000F629DF91CF9108950F931F93CF93DF93F7
:101540008C01C99719F0C0E0D0E002C0C0E5D0E03E
:10155000C8010E94820A209741F08FE99FE001971D
:10156000F1F700C000002197F6CFC8010E94BA0928
:10157000DF91CF911F910F910895CF93DF93EC01ED
:101580008A81833061F48EE390E00E949C0A8EE3AE
:1015900090E00E949C0A8EE390E00E949C0A8A815F
:1015A000843020F08EE390E00E949C0ADF91CF917E
:1015B0000895CF93DF93EC018A81833061F488E34F
:1015C00090E00E949C0A88E390E00E949C0A88E3D5
:1015D00090E00E949C0A8A81843020F088E390E0A9
:1015E0000E949C0ADF91CF910895CF93DF93EC0185
:1015F0008A81833061F489E190E00E949C0A89E14C
:1016000090E00E949C0A89E190E00E949C0A8A81F5
:10161000843020F089E190E00E949C0ADF91CF9114
:101620000895CF93DF93EC018A81833061F487E1E1
:1016300090E00E949C0A87E190E00E949C0A87E16A
:1016400090E00E949C0A8A81843020F087E190E03B
:101650000E949C0ADF91CF910895CF93DF93EC0114
:101660008A81833061F485E190E00E949C0A85E1E3
:1016700090E00E949C0A85E190E00E949C0A8A8189
:10168000843020F085E190E00E949C0ADF91CF91A8
:101690000895CF93DF93EC018A81833061F489E26E
:1016A00090E00E949C0A89E290E00E949C0A89E2F4
:1016B00090E00E949C0A8A81843020F089E290E0C8
:1016C0000E949C0ADF91CF9108950E94A009809307
:1016D000CB02823049F018F4813091F008958330C4
:1016E00031F0853049F008958EE398E00BC08EE329
:1016F00090E00E94820A04C08EE390E00E949C0A5F
:101700008EE390E00E94820A08950E94A0098093CF
:10171000C902823049F018F4813091F00895833085
:1017200031F0853049F0089587E09AE00BC088E3F6
:1017300090E00E94820A04C088E390E00E949C0A24
:1017400088E390E00E94820A08950E94A009809395
:10175000C702823049F018F4813091F00895833047
:1017600031F0853049F0089589E19AE00BC089E1B4
:1017700090E00E94820A04C089E190E00E949C0AE5
:1017800089E190E00E94820A08950E94A009809356
:10179000C502823049F018F4813091F00895833009
:1017A00031F0853049F0089587E196E00BC087E17C
:1017B00090E00E94820A04C087E190E00E949C0AA7
:1017C00087E190E00E94820A08950E94A009809318
:1017D000C302823049F018F4813091F008958330CB
:1017E00031F0853049F0089585E19AE00BC085E13C
:1017F00090E00E94820A04C085E190E00E949C0A69
:1018000085E190E00E94820A08950E94A0098093D9
:10181000C102823049F018F4813091F0089583308C
:1018200031F0853049F0089584E490E00BC089E2FE
:1018300090E00E94820A04C089E290E00E949C0A23
:1018400089E290E00E94820A0895982F92959F70F5
:1018500019F0892F24E001C020E0982F96959695E5
:1018600011F02E5F892F982F969509F02F5F822F08
:101870000895A6E0B0E0EFE3FCE00C94B23126E07E
:10188000FC01DE01119601900D922A95E1F7FC0111
:10189000258189819A81222359F0662349F00E948B
:1018A0005428182F682F89819A810E94C42803C068
:1018B0000E949028182F69817A81812F0E94C31B72
:1018C0002696E3E00C94CE31A4E3B0E0EAE6FCE037
:1018D0000C94B2314FA758AB69AB7AAB8BAB9CABD6
:1018E00091111092B505CE01889627E0DC011D927A
:1018F0002A95E9F726E0FE01BF96DC0101900D92E2
:101900002A95E1F72CA52223C1F061E00E94390C51
:1019100080911B06882389F08DA5811102C087E084
:1019200001C086E0898388A58A8389A58B838EEF91
:101930008C83CE0101960E94E32B87E0FE01B896CE
:10194000DE01919601900D928A95E1F7CE01819684
:101950000E94731E81112CC087E0FE01B196DE014A
:10196000119601900D928A95E1F76DA1662301F120
:101970002091EE0330E0C9010196877099274091CC
:10198000270450E08417950761F16D8397E0929FDB
:10199000D001939FB00D1124A151BC4FFE0131968F
:1019A00001900D929A95E1F78093EE030E94101E2C
:1019B00017E0809127049091EE03891709F1189F91
:1019C000C001112481519C4F0E94731E8823C1F0D5
:1019D0008091270490E001968770992780932704CF
:1019E000E8CF109299030E945D291092EE031092A5
:1019F0002704E7EEF3E087E0DF011D928A95E9F71F
:101A0000E496E3E00C94CE31109299030E945D2994
:101A10002FEF84E39CE0215080409040E1F700C02C
:101A200000009AE088E10FB6F894A89580936000D2
:101A30000FBE90936000FFCFCF93C82F0E94250C5C
:101A400056985E9825982D9826982E9827982F9826
:101A500090E0FC013197E730F105A8F4E158FF4F21
:101A60000C944F32259A2D9A0EC0259A2D9A269ABB
:101A70002E9A09C0259A2D9A04C0259A2D9A269A45
:101A80002E9A279A2F9A8C2FCF91089580E290E07A
:101A900090931201809311018091BF0281110EC0B9
:101AA0000E949E3081E08093BF022FEF83ED90E390
:101AB000215080409040E1F700C0000060E570E0F8
:101AC00080E40E94A4309093120180931101892B2D
:101AD00009F04EC060E570E080E00E9417319093FD
:101AE000120180931101892B09F042C060E570E07A
:101AF00080E00E9417319093120180931101892B8D
:101B0000B9F560E570E08FE30E9417319093120100
:101B100080931101892B61F50E948B3160E570E0A3
:101B200080E40E94A4309093120180931101892BCC
:101B3000F9F460E570E08CE00E9417319093120197
:101B400080931101892BA1F460E570E080E00E9490
:101B500017319093120180931101892B49F460E5AC
:101B600070E08FE30E94173190931201809311016E
:101B70000E948B31809111010895CF93DF93569885
:101B80005E9825982D9826982E9827982F98C8E823
:101B9000D0E08FEF90E099838883AAE8B0E01196B7
:101BA0009C938E93ECE8F0E091838083259A2D9AA4
:101BB0002FEF80E792E0215080409040E1F700C095
:101BC0000000269A2E9A2FEF80E792E02150804065
:101BD0009040E1F700C00000279A2F9A2FEF80E78E
:101BE00092E0215080409040E1F700C0000025982D
:101BF0002D982FEF80E792E0215080409040E1F750
:101C000000C0000026982E982FEF80E792E0215028
:101C100080409040E1F700C0000027982F98809105
:101C2000C10587702FEF829FC0011124959587957C
:101C30009595879599279983888311969C938E9380
:101C40009183808356985E9825982D9826982E9893
:101C500027982F98DF91CF910895CF93E82F873061
:101C600080F58091110190911201892B09F047C0F4
:101C7000CE2F60E570E080E40E94A43090931201C2
:101C800080931101892BD1F460E570E082E10E941C
:101C900017319093120180931101892B79F481E01F
:101CA00090E001C0880FCA95EAF760E570E0809582
:101CB0000E94173190931201809311010E948B3181
:101CC0001EC090E0FC013797E730F105C0F4EA57F9
:101CD000FF4F0C944F32209A289811C0219A2998CE
:101CE0000EC0229A2A980BC0239A2B9808C0529AA9
:101CF0005A9805C0539A5B9802C03E9A4698CF9175
:101D00000895209828982198299822982A9823980D
:101D10002B9852985A9853985B983E9846980895F5
:101D2000CF93873040F58091110190911201892B5A
:101D300059F560E570E081E40E94A43090931201AF
:101D400080931101892B11F0C0E011C080E590E073
:101D50000E94463197FF05C09093120180931101B4
:101D6000F3CFC82FC09510921201109211010E945A
:101D70008B318C2F0AC09FB18FB1807F869586955D
:101D80009370892B809501C080E0CF910895809851
:101D9000889A8198899A84988C9A85988D9A869841
:101DA0008E9A87988F9A0895E42FF0E0EE0FFF1F28
:101DB000EC5DFD4F9081921B97FD9195292F38E1A5
:101DC000239F212D1124620F08952091240630E1D4
:101DD000230F08F42FEF60E1822F90E00E940A3079
:101DE000BC0188EB9BE00E948F3180E090E0089579
:101DF0000F931F93CF93DF93D62F072F182FC42F46
:101E0000822F0E947A2FEC2FF0E0EE0FFF1FEC5D87
:101E1000FD4F90819058890F87FD8195880F682F1D
:101E20002CE0629F612D11246D0F702F812FDF91A7
:101E3000CF911F910F9108950E94702108950E94E3
:101E400013210895A4E0B0E0E8E2FFE00C94A4318F
:101E5000782E8091080187110DC0209120062370F3
:101E600030E04091070150E081E02417350719F474
:101E700080E001C081E0817080937501809125062A
:101E800090917401981739F08093740140E060E0FC
:101E900080E00E941C0FEFE07E125DC08AE29EE2AD
:101EA0000E940C2C8A8342C0F71508F49AC123E0E3
:101EB000721609F459C0271508F4F7C031E07316FB
:101EC00009F497C0371508F0B6C080917301382F18
:101ED000330F330F380F398375E0F72EF30E80E39D
:101EE0008F1510F460E3F62E1091220690912306D0
:101EF0009A8300912106B801892F0E941430E62EA2
:101F0000D72EC82E60912406600F712F8A810E94FF
:101F100014306A83172F082F29812F1508F4ABC0BE
:101F200031E03A838FE28F1508F48EC080917301FF
:101F30008F5F809373019A81911112C582E0809323
:101F400076018091750181110BC5711009C583E07F
:101F50008093760105C5E71508F46BC1F7E07F12A1
:101F6000A3CF89E59EE29CCF80917301982F990FB2
:101F7000990F980F99839B5F9B83913310F0E0E357
:101F8000EB83E0902206D09023062091240650E4B3
:101F9000F52E3F2D329F312D1124F32EE981FB8147
:101FA000EF1708F042C08981082F10E0F801EC57C4
:101FB000FD4F9081809174018923B9F0F801EE0FF3
:101FC000FF1FEB5DFD4F808182958F706091210630
:101FD0008F9D600D11247E2D8D2D0E941430462F73
:101FE000282F672FC8010E941F0F99819F5F998337
:101FF000D5CF80917301282F220F220F280F29831C
:102000002B5F2B83213310F030E33B83609121065B
:1020100070912206809123060E941430162F072FFC
:10202000F82EE981FB81EF1788F021E02A83F03355
:1020300008F47CCF09C080917501882329F040E025
:1020400060E080E00E941C0F1A8270CF8981E82F27
:10205000F0E0DF01AC57BD4F8C9190917401982353
:1020600031F02F2D412F602FCF010E941F0F99813A
:102070009F5F9983D6CFE9818E2F90E0FC01EC57CA
:10208000FD4F308120917401232359F030FF04C0AB
:10209000202F4A81612F03C02C2D4E2D6D2D0E94C3
:1020A0001F0FF981FF5FF98337CF85E078124AC0AF
:1020B00080917301382F330F330F380F39833B5F13
:1020C0003B83313310F080E38B8300912106109124
:1020D0002206F09023066091240666956695669523
:1020E00080911706909118060E940A300E947A2F5C
:1020F000805887FD8195880F282F3F2D239F212D04
:102100001124822FB8010E941430162F072FF82EA9
:10211000E981FB81EF1708F088CF8981E82FF0E093
:10212000DF01AC57BD4F8C9190917401982331F031
:102130002F2D412F602FCF010E941F0F99819F5F8C
:102140009983E6CF871508F449C080917301382F31
:10215000330F330F380F39833B5F3B83313310F03C
:1021600080E38B83E0902206D09023062091240602
:1021700030E4F32E3F2D329F312D1124F32EE981CF
:10218000FB81EF1708F051CF8981082F10E0F8018B
:10219000EC57FD4F9081809174018923D9F0F801AB
:1021A000EE0FFF1FEC5DFD4F6081F69EB001112424
:1021B00095E0759567959A95E1F780912106680FEE
:1021C0007E2D8D2D0E941430462F282F672FC80199
:1021D0000E941F0F99819F5F9983D1CF85E89EE26E
:1021E0005FCE9BE0791208C088E09FE202C084E2E3
:1021F0009FE20E94AB2C56CE971568F0E9E07E1264
:1022000005C08FE39FE20E94272D4CCEE71578F39F
:102210008DE59FE2F8CFFDE07F1203C08EE49EE2E1
:102220003FCEF71518F087E59EE23ACE85E49EE2B0
:1022300037CE27E172128DC080917301382F330F92
:10224000330F380F3983132F1B5F113308F010E35E
:1022500080917501811121C06091240620E1620FF7
:1022600008F46FEF80911706909118060E940A30CB
:102270006AE070E00E948F31892B41F50E949B2F0C
:1022800090E3899F9001112460917401832F932F13
:10229000990F990B0E94C42419C0F981EF2FF0E027
:1022A000FC83EB83E12EF12C8B819C818E159F05A5
:1022B0006CF4609174018B819C810E94C4242B81F9
:1022C0003C812F5F3F4F3C832B83EECF91E09A837D
:1022D0003CC0E71508F4D2C0F9E17F1609F467C0E5
:1022E000F71508F4C8C080917301E82FEE0FEE0FC8
:1022F000E80FE9831E2F1B5F113308F010E3809174
:10230000750181119FC06091240620E1620F08F4DD
:102310006FEF80911706909118060E940A3065E0D1
:1023200070E00E948F31892B71F40E949B2FF0E3A3
:102330008F9F9001112460917401832F932F990F27
:10234000990B0E94A024F1E0FA83103308F4EECD3B
:102350007BCE271530F133E1731203C083EE9EE28A
:1023600048CF371570F081E1781203C081EE9FE20B
:102370004ACF871518F08BE19EE23BCF87EF9EE2B4
:1023800042CF95E1791203C08BEB9DE204C0971513
:1023900028F08DEE9DE20E94562C84CD8DE79DE2C3
:1023A000FACFEBE17E1295CF84ED9EE079CD80915E
:1023B0007301282F220F220F280F29832B5F2B83D5
:1023C000213310F030E33B83009122061091230665
:1023D000F090210660912406669566956695809139
:1023E0001706909118060E940A300E947A2F805892
:1023F00087FD8195880F682F2CE0629F612D112445
:102400006F0D702F812F0E941430162F072FF82E7A
:10241000E981FB81EF1708F008CE8981E82FF0E011
:10242000DF01AC57BD4F8C9190917401982331F02E
:102430002F2D412F602FCF010E941F0F99819F5F89
:102440009983E6CF3981232F30E03C832B83E12E23
:10245000F12CEB81FC81EE15FF050CF074CF60913F
:1024600074018B819C810E94A0248B819C810196A8
:102470009C838B83EECF88EF9EE012CD2DE172120C
:10248000EEC04091600350916103609162037091CE
:1024900063038091170690911806A0911906B091D8
:1024A0001A0684179507A607B70708F4CDCD8091C3
:1024B000750181110EC080917301382F330F330FD6
:1024C000380F3983032F0B5F013308F45AC000E340
:1024D00058C040E060E080E00E941C0F00ED12E078
:1024E0001C821B820E949B2F81FF05C0F801108275
:1024F0001182128220C00E949B2FD82E0E949B2FF7
:10250000F0E88F9FC00111247FE7790F8B819C81B8
:10251000880F991F2B813C81820F931FFC01E05390
:10252000FD4F7F016D2D809123060E941430F7012D
:102530006083718382832B813C812F5F3F4F3C837B
:102540002B830D5F1F4F2033310561F6B4CF3981E6
:10255000832F90E0FC01EC57FD4F308120917401F6
:10256000232361F0FC01EE0FFF1FE80FF91FE0537A
:10257000FD4F2281408161810E941F0F89818F5F01
:1025800089839981901718F3E1E0EA83003308F01A
:102590001A82003308F4CACC20E010E0015011097F
:1025A000822F90E080179107CCF4AC01440F551FA7
:1025B000480F591F40535D4F0196FC01EE0FFF1F5E
:1025C0008E0F9F1FFC01E053FD4F80819181A281FE
:1025D000FA0180839183A2832F5FE2CF0E949B2F19
:1025E0007801EE0CFF1C81FF09C00E0D1F1DF801C4
:1025F000E053FD4F10821182128218C00E949B2F5F
:1026000089830E949B2FF0E88F9FC00111247FE7F0
:10261000790F0E0D1F1D00531D4F698180912306F8
:102620000E941430F8016083718382830E94E50E5A
:1026300000911706109118062091190630911A067C
:10264000DC01CB01800F911FA21FB31F8093600399
:1026500090936103A0936203B093630367CC7216F7
:1026600008F07AC080917301982F990F990F890F04
:102670008B5F8B8340911706509118066091190665
:1026800070911A068091CC029091CD02A091CE0259
:10269000B091CF0284179507A607B70708F055C079
:1026A0000E949B2F30E3839FC0011124092F112723
:1026B00007FD1A95F801EC57FD4F80819091740148
:1026C000982309F442C00E949B2F81FD0EC00E94F6
:1026D0009B2F89830E949B2FE0E88E9FC0011124CD
:1026E0007FE7790F8091230603C080E070E01982B4
:1026F00069810E941430462F282F672FC8010E943D
:102700001F0F2091240630E1230F08F42FEF60E122
:10271000822F90E00E940A30BC0184EF91E00E9479
:102720008F318091170690911806A0911906B091EB
:102730001A06860F971FA11DB11D8093CC0290939E
:10274000CD02A093CE02B093CF02F1E0FA832B81A9
:10275000203308F4EBCB78CC3EE17312C7C08091F4
:102760007501882329F040E060E080E00E941C0FA2
:1027700080917301982F990F990F890F8B5F89832F
:1027800040911706509118066091190670911A062B
:1027900080918E0390918F03A0919003B09191034B
:1027A00084179507A607B70708F099C0609121061E
:1027B00070912206809123060E941430662E572EB7
:1027C000482E04E613E020ED31E03C832B8344E205
:1027D000842E42E0942EAB80BC806501780132E00B
:1027E000332EF7018081F601882369F08081242D42
:1027F000462D652D90E00E941F0FF5018581242D47
:10280000462D652D0CC0808120E040E060E090E026
:102810000E941F0FF501858120E040E060E090E01C
:102820000E941F0FF701818181937F013A94FFEF8E
:10283000CF1ADF0A21E0A21AB1083110D2CFF80175
:102840008281EB81FC81882371F08281242D462DC9
:10285000652D90E00E941F0FEB81FC818381242D68
:10286000462D652D0DC0828120E040E060E090E0C3
:102870000E941F0FEB81FC81838120E040E060E03B
:1028800090E00E941F0F0E949B2F837091E009F03F
:1028900090E0F80192830D5F1F4F2B813C812A5FEE
:1028A0003F4F3C832B838216930609F094CF0E94FE
:1028B000E50E009117061091180620911906309127
:1028C0001A06DC01CB01800F911FA21FB31F80935A
:1028D0008E0390938F03A0939003B093910331E004
:1028E0003A838981803308F421CBAECB8FEF781205
:1028F00031C08091170690911806A0911906B091E9
:102900001A0688279C70AA27BB272AE0B695A795A8
:10291000979587952A95D1F782309105A105B10544
:1029200071F083309105A105B10569F040E0019790
:10293000A105B10511F060E008C064E102C044E106
:1029400060E080E003C044E164E184E10E941C0F88
:1029500082E0FECA809173018F5F80937301EECA9B
:102960002496E1E10C94C031E0E2F6E085E3808357
:102970008091790190917A01A0917B01818392836A
:10298000A3838FE784838FEF858348E050E068E17D
:1029900070E0CF010E94073210921F0608958091C7
:1029A000BF0387FF11C08091E80082FD05C08091C0
:1029B0001E068111F8CF11C08091E8008B770BC003
:1029C00080911E06882349F08091E80080FFF8CFAF
:1029D0008091E8008E778093E8000895982F9730D3
:1029E00068F59093E900981739F07091EC00209108
:1029F000ED005091F00003C0242F762F50E021FD10
:102A000002C09F5FECCF3091EB003E7F3093EB0034
:102A10003091ED003D7F3093ED003091EB0031605F
:102A20003093EB007093EC002093ED005093F00096
:102A30002091EE0027FDE5CF80E008958F70809310
:102A4000E90081E008952091C5033091C60326175F
:102A5000370748F06115710539F42091E8002E77A9
:102A60002093E80001C0B901FC0120E06115710567
:102A700079F180911E068823F1F18530F1F1809182
:102A8000E80083FD3CC08091E80082FD2EC080916B
:102A9000E80080FFEBCF2091F3008091F20090E0FE
:102AA000922B6115710551F08830910538F4219110
:102AB0002093F100615071090196F3CF21E008974E
:102AC00009F020E08091E8008E778093E800CECF77
:102AD0002111CFCF0AC080911E06882361F0853076
:102AE00061F08091E80083FD0AC08091E80082FFD8
:102AF000F2CF80E0089582E0089583E0089581E0B8
:102B00000895089580919B0308959B0190911E065E
:102B10009430F1F48F708093E9008FEF9091E8008A
:102B2000815095FD06C095ED9A95F1F70000811151
:102B3000F5CF8091E80085FF0BC0BA01C90140E0E4
:102B400050E00E94B92B8091E8008E778093E800D6
:102B5000089543E050E0BC0184E00E94851508958B
:102B6000CF93DF93EC0180910601811105C048E00D
:102B700050E0BE0181E00BC08091960387FF03C047
:102B800040E284E002C048E081E050E0BE010E94E3
:102B9000851580E2FE01ACE9B3E001900D928A95C3
:102BA000E1F7DF91CF910895AAE2B0E0EAEDF5E117
:102BB0000C94B231EFEBF3E087EC93E02091F1005D
:102BC00021938E179F07D1F78091C003833009F4BA
:102BD00063C030F4813071F0823009F49FC0B6C018
:102BE0008A3009F48BC08B3009F46EC0893009F04B
:102BF000ADC020C08091BF03813A09F0A7C0809189
:102C0000E800877F8093E8008091C3039091C4031C
:102C1000892B21F460E28CE993E003C060E080E05E
:102C200090E070E00E9423158091E8008B778093FC
:102C3000E8008CC08091BF03813209F087C0809189
:102C4000C3039091C403009719F0029709F07EC066
:102C50008091E800877F8093E8008091E80082FD02
:102C600005C080911E068111F8CF70C02091F3003D
:102C70008091F20090E0922B029731F48091F10064
:102C8000813011F0863021F48091F10080939B0314
:102C90008091E8008B7756C08091BF03813A09F09C
:102CA00055C08091C3039091C403892B09F04EC095
:102CB0008091E800877F8093E8008091E80080FFA2
:102CC000FCCF8091060139C08091BF038132F1F5BC
:102CD0008091C3039091C403892BC1F58091E800D2
:102CE000877F8093E8000E94CF148091C103809376
:102CF0000601109299030E945D2928C08091BF03AC
:102D0000813221F58091E800877F8093E8000E945E
:102D1000CF148091C20380939A0318C08091BF039F
:102D2000813AA1F48091E800877F8093E800809148
:102D3000E80080FFFCCF80919A038093F10080919E
:102D4000E8008E778093E8000E94CF148091E8001D
:102D500083FFDFC18091BF039091C003492F50E0F2
:102D60004A30510508F0D5C1FA01E357FF4F0C94E2
:102D70004F32803821F0823809F0CBC108C08091F1
:102D8000BC039091BD03992389F082600FC08091AC
:102D9000C3038F70873008F0BCC18093E900809135
:102DA000EB0085FB882780F91092E9009091E800FC
:102DB000977F9093E8008093F1001092F10070C12A
:102DC000282F2D7F09F0A5C1882319F0823061F0EA
:102DD000A0C18091C103813009F09BC1933009F0FB
:102DE00080E08093BD032EC08091C10381112AC071
:102DF0008091C3038F702FEF280F263008F089C110
:102E00008093E9002091EB0020FF1CC0933021F457
:102E10008091EB00806214C09091EB0090619093E0
:102E2000EB0021E030E0A90102C0440F551F8A9554
:102E3000E2F74093EA001092EA008091EB0088608C
:102E40008093EB001092E9008091E800877F8093E7
:102E5000E8000E94CF145DC181115BC11091C103D4
:102E60001F778091E3008078812B8093E30080912D
:102E7000E800877F8093E8000E94CF148091E800EB
:102E800080FFFCCF8091E30080688093E300111104
:102E900002C082E001C083E080931E063AC18058E0
:102EA000823008F036C12091C1033091C2032C3D1D
:102EB00053E0350779F583E08A838AE289834FB747
:102EC000F894DE01139620E03EE051E2E32FF0E0BB
:102ED00050935700E49120FF03C0E295EF703F5FED
:102EE000EF708E2F90E0EA3010F0C79601C0C096C8
:102EF0008D939D932F5F243149F74FBF8091E80058
:102F0000877F8093E8006AE270E0CE0101960E941C
:102F10002315B4C08091C3039091C403432F552758
:102F200043305105A9F068F44130510509F400C15E
:102F30004230510509F0EDC08BE590E0E1E4F2E0AC
:102F40004BC04132510529F14232510589F1E1C0AE
:102F5000C901992781309105A1F058F0029709F035
:102F6000D8C0EEEAF2E0E4918E2F90E0EEEAF2E0D3
:102F700030C0EAEFF2E0E4918E2F90E0EAEFF2E069
:102F800028C0E0EDF2E0E4918E2F90E0E0EDF2E079
:102F900020C08330910508F0BCC0880F991FFC0148
:102FA000EB57FE4F0190F081E02D89E090E014C0D6
:102FB0008330910508F0ADC0FC01EE0FFF1FE15812
:102FC000FE4F0190F081E02DDC01A458BE4F8C91A2
:102FD00090E0009709F49DC02091E800277F20939E
:102FE000E8002091C5033091C6032817390708F47B
:102FF000C90140E0009789F120911E06222309F4BF
:103000003DC02530D9F12091E80023FD37C0209143
:10301000E80022FD2FC02091E80020FFEBCF409177
:10302000F3002091F20030E0342B009759F0283063
:10303000310540F444914093F100319601972F5FA0
:103040003F4FF3CF41E02830310509F040E02091B7
:10305000E8002E772093E800CDCF4111CDCF0AC0F4
:1030600080911E06882351F0853041F08091E80060
:1030700083FD04C08091E80082FFF2CF8091E800D8
:103080008B778093E80045C0803809F042C080917A
:10309000E800877F8093E8008091BE038093F10071
:1030A0008091E8008E77D3CE811133C08091C10327
:1030B0009091C2039927029764F58091E800877F79
:1030C0008093E8001091C1031093BE030E94CF14B7
:1030D000111106C08091E30087FD02C081E001C0AC
:1030E00084E080931E0642E061EC81E00E94EE14D1
:1030F00042E261EC84E00E94EE1442E261EC82E084
:103100000E94EE1442E260EC83E00E94EE14809193
:103110001E068091E80083FF10C08091E800877F41
:103120008093E8008091EB0080628093EB0005C003
:1031300082E190E0ECE9F2E04FCFAA96E3E00C9454
:10314000CE311F920F920FB60F9211242F933F93FF
:103150004F935F936F937F938F939F93AF93BF939F
:10316000CF93DF93EF93FF93C091E900CF708091ED
:10317000EC00D82FD17080FDD0E81092E90080914A
:10318000F000877F8093F00078940E94D41510920D
:10319000E9008091F00088608093F000CD2BCF7023
:1031A000C093E900FF91EF91DF91CF91BF91AF9173
:1031B0009F918F917F916F915F914F913F912F914F
:1031C0000F900FBE0F901F901895E8EDF0E08081F2
:1031D0008E7F80831092E2001092DA001092E1005C
:1031E000A0EEB0E08C9181608C9380818F7780839A
:1031F00019BCA7EDB0E08C918E7F8C9380818F7E7F
:103200008083109298030895A0E0B0E0EAE0F9E12D
:103210000C94AD31C8EDD0E088818F7E8883E7EDD6
:10322000F0E080818160808384E082BF81E08093D0
:10323000980388818E7F888302EE10E0F801108267
:103240001092DA0081EEC82ED12CF601108288810E
:103250008F77888388818068888388818F7D888341
:1032600019BC10921E061092BE031092BD0310925C
:10327000BC0390EEE92EF12CF70180818B7F8083D7
:1032800088818160888342E060E080E00E94EE14E3
:10329000F60180818E7F8083F80180818160808348
:1032A000808188608083F70180818E7F8083888120
:1032B00080618883CDB7DEB7E8E00C94C9311F92F6
:1032C0000F920FB60F9211242F933F934F935F935A
:1032D0006F937F938F939F93AF93BF93EF93FF93DE
:1032E0008091E10082FF09C08091E20082FF05C069
:1032F0008091E1008B7F8093E1008091DA0080FF74
:103300002AC08091D80080FF26C08091DA008E7F8D
:103310008093DA008091D90080FF18C080E189BDD8
:1033200082E189BD09B400FEFDCF81E080931E06D5
:103330008091980381110FC00E94E5180E94041922
:103340008091E20084608093E20005C019BC109275
:103350001E06109298038091E10080FF17C08091B3
:10336000E20080FF13C08091E2008E7F8093E20034
:103370008091E20080618093E2008091D8008062B9
:103380008093D80019BC85E080931E068091E100EF
:1033900084FF30C08091E20084FF2CC080E189BDB1
:1033A00082E189BD09B400FEFDCF8091D8008F7DF8
:1033B0008093D8008091E1008F7E8093E10080911E
:1033C000E2008F7E8093E2008091E2008160809332
:1033D000E2008091BE03882311F084E007C0809151
:1033E000E30087FD02C081E001C083E080931E06F8
:1033F00080911E068091E10083FF27C08091E2004A
:1034000083FF23C08091E100877F8093E10082E009
:1034100080931E061092BE038091E1008E7F809300
:10342000E1008091E2008E7F8093E2008091E200D3
:1034300080618093E20042E060E080E00E94EE1450
:103440008091F00088608093F000FF91EF91BF9130
:10345000AF919F918F917F916F915F914F913F912C
:103460002F910F900FBE0F901F9018952091E400A0
:103470003091E50095E64091EC00842F817040FF8B
:1034800023C08091E80080FD1DC080911E06882326
:1034900099F0853099F08091EB0085FD11C0409145
:1034A000E4005091E5002417350729F3915011F0FD
:1034B0009A01E1CF84E0089582E0089583E00895C1
:1034C00081E0089580E008954091E80042FFDDCF5B
:1034D000089578941F920F920FB60F9211248F9334
:1034E0009F93AF93BF938091920390919303A09188
:1034F0009403B09195030196A11DB11D8093920391
:1035000090939303A0939403B0939503BF91AF91CD
:103510009F918F910F900FBE0F901F9018959C0157
:103520004FB7F8948091920390919303A0919403E4
:10353000B09195034FBF821B930B08952FB7F8945A
:1035400060919203709193038091940390919503FD
:103550002FBF08952FB7F894809192039091930311
:10356000A0919403B09195032FBF089580E0089532
:103570009091960392FF10C041E0282F24712430CF
:1035800009F040E031E0282F2871283009F030E0C0
:10359000431711F02CE0822793FF10C041E0282F41
:1035A0002471243109F040E031E0282F28712831BE
:1035B00009F030E0431711F02CE082273091970397
:1035C00030FF10C051E0282F2171213009F050E068
:1035D00041E0282F2871283009F040E0541711F0FD
:1035E00029E0822731FF10C041E0282F21712131CD
:1035F00009F040E031E0282F2871283109F030E04F
:10360000431711F029E0822794FD877E08958238C0
:10361000910569F1B0F48133910509F475C048F45E
:103620008932910509F467C08A32910509F471C0A5
:1036300008958533910509F459C089339105B9F08E
:103640000895833E910589F138F4803E9105D1F0CB
:10365000823E910529F10895863E9105C9F1873E84
:103660009105D9F1843E910509F06CC027C02091E5
:10367000960320FD57C021FD55C02091970323FDDF
:103680005BC008958091960380FD48C080919703A8
:1036900080FF48C08091960384FD46C083EE51C0F0
:1036A0008091960382FF3CC0F5CF8091960382FD06
:1036B00037C08091970380FD35C0ECCF8091970390
:1036C00081FF36C08091960384FD2EC087EE39C0FD
:1036D0008091960383FF2AC0F5CF8091960383FDE6
:1036E00025C08091970381FD23C0ECCF8091960384
:1036F00085FD22C01FC08091960385FD1BC080916F
:10370000970383FF19C00AC08091960386FD16C0F7
:1037100017C08091960386FD13C010C089E311C0C5
:1037200082EE0FC080EE0DC080E00BC086EE09C0B7
:1037300084EE07C085E305C089E203C08AE201C0C8
:1037400081E390E00895209127049091EE0357E0E3
:103750002917A9F030E0529FF001539FF00D11247A
:10376000E151FC4F7181761306C07081781303C05C
:103770007581741306C02F5F3F4F2770E9CF80E03B
:10378000089581E008957E30B0F46630A0F483306F
:10379000A0F494E5899FF001112486E0789FE00D64
:1037A000F11D1124E60FF11DEE0FFF1FE250FD4F3A
:1037B00085919491089580E001C081E090E00895A2
:1037C0001F93CF93DF930E94071BEC01C11580E587
:1037D000D807E8F5C11590E4D90708F0A8C0C03EA5
:1037E000D10530F5CD3CD10508F094C0C83AD105DB
:1037F00078F4C53AD10508F083C0C130D10509F489
:103800007CC008F4F2C0C430D10508F0F1C0EDC0AE
:10381000C33CD10508F0E9C0C85AD0E0CC0FDD1F89
:10382000C257DE4F0990D881C02DCE019464E1C00B
:10383000C11580E2D80708F0CBC0C11591E0D907C7
:1038400008F06BC0C83ED10508F4D2C0CEC0C03667
:1038500082E5D80728F5C03492E5D90708F079C089
:10386000C03282E5D80708F06CC0C11592E5D907CF
:1038700008F481C04C2F4695469580E2489FA001F0
:103880001124C37021E030E0C90102C0880F991FE4
:10389000CA95E2F7EA01C82BD92BCE019D68A9C0D1
:1038A000C03A82E5D807B8F48C2F8F71C03892E502
:1038B000D90708F07BC08695869590E2899F900194
:1038C0001124C37081E090E002C0880F991FCA954F
:1038D000E2F79A6868C0C03C82E5D80708F46DC07A
:1038E000C03E92E5D90708F080C0CF71DD27DC2FFC
:1038F000CC27CE01806F906A7CC081E090E079C0D7
:10390000C55AD0E0C557DE4F8881C82FD0E0CE0120
:1039100090646FC0CE0190656CC08D2F0E94B81A64
:10392000182FCE0199270E94071B1F715CC0CE0182
:1039300099270E94071BCC27DF70D06A8C2B9D2B08
:1039400058C0CF71D0E0DC2FCC27CE01816F906AB8
:1039500050C08C2F8F718695869590E2899F90013B
:103960001124C37081E090E002C0880F991FCA95AE
:10397000E2F79C6818C08C2F8F710E94B81A95E0EE
:10398000D695C7959A95E1F7CF70D0E0DC2FCC277C
:10399000282F30E084FF05C084E0220F331F8A9572
:1039A000E1F7D069CE01822B932B23C090E0D82F72
:1039B000CC27CE01846F906A1CC08C2F8F710E941F
:1039C000B81A8F7190E0D82FCC27CE01906211C029
:1039D0008D2F8F710E94B81A182FCE0199270E943F
:1039E000071B1F719062912B04C080E090E001C022
:1039F000CE01DF91CF911F910895A8E0B0E0E3E000
:103A0000FDE10C94B33166EE7EEF80E090E00E9421
:103A1000353260E082E090E00E94173260E083E09F
:103A200090E00E94173210924A0460E074E184E052
:103A300090E00E94353260E086E090E00E9417320C
:103A40006FEF87E090E00E94173240E050E0BA014B
:103A500088E090E00E94293260E084E290E00E94D9
:103A6000173260E087E190E00E94173260E08CE05E
:103A700090E00E94173260E08DE090E00E941732E3
:103A800019821A821B821C821D821E821F82188646
:103A900048E050E068E170E0CE0101960E940732F4
:103AA00040E050E0BA0180E290E00E94293210929A
:103AB000C1051092C2051092C3051092C40584E09E
:103AC0008093C1054091C1055091C2056091C30525
:103AD0007091C4058FE090E00E94293240E050E0F0
:103AE000BA0183E190E00E9429322896E2E00C942A
:103AF000CF31809149048111109249040895809535
:103B00009091B50589238093B5050895809590918E
:103B10009903892380939903089590919903809143
:103B2000B505982B9093C703809149048823D9F059
:103B3000892B8093C70380910601882331F08091FF
:103B4000960387FF02C08EE101C086E0E9ECF3E056
:103B500090E0815028F021912223D9F39F5FF9CF83
:103B600091110E94791D40E250E069E274E087EC17
:103B700093E00E947633892B21F180E2E7ECF3E0B9
:103B8000A9E2B4E001900D928A95E1F7E091BA05BF
:103B9000F091BB053097A9F080910601882359F078
:103BA0008091960387FF07C08091C7038093C80365
:103BB00086E08093C7030280F381E02D87EC93E0D9
:103BC000099508959091280480958923809328046D
:103BD000282F277069F4981759F09091970392FF56
:103BE00007C08695869586950E941E291092280406
:103BF00008959091970392FB222720F9281779F0D6
:103C000080FB92F9909397036091960370919703CC
:103C100084E090E00E94353282E00E94E21D089527
:103C2000809127049091EE03891719F08F5F8770B8
:103C3000FBCF0895CF93DF938091ED0382958F7032
:103C400009F04EC08091EC03882309F449C08091AB
:103C500027044091EE035091E8036091E703C0917F
:103C6000E903D091EA0377E08417D1F190E0789FDF
:103C7000F001799FF00D1124DF01A151BC4F149682
:103C80002C911497222349F111962C911197251309
:103C900024C02C91261321C015962C911597211123
:103CA0001CC012962D913C9113972C1B3D0B283C68
:103CB000310598F48091ED038F7080618093ED035E
:103CC000EB50FC4F80818F708061808387EE93E0A2
:103CD0000E94D2030E94101E03C001968770C4CFB9
:103CE000DF91CF910895A4E1B0E0E9E7FEE10C9403
:103CF000A9318C0186E0F801DE011F9601900D923A
:103D00008A95E1F7F8018481E58097EE892E93E0AA
:103D1000992E9091EB03911120C0882309F463C17F
:103D2000EE2009F442C0C8010E943A29F82E8823E7
:103D3000E1F187E0F801D40101900D928A95E1F755
:103D40008091EB03813031F48091E7039091E80397
:103D50000E9483280E941A1E48C1F801D080C180A9
:103D6000A280B380F090EC032091E9033091EA0344
:103D7000FF2009F4E7C0A501421B530B483C510545
:103D800008F09DC0882309F430C18091ED03282FED
:103D9000207F9091E803222361F09C1509F460C014
:103DA000C8010E943A29811163C0C8010E94D20350
:103DB0001AC19C1113C09091E7039D110FC0E1102F
:103DC0000DC08F7080618093ED0387EE93E00E94B9
:103DD000D2038091ED03F801868303C1E1103AC05C
:103DE00040E06C2D8D2D0E94A31B40E06C2D8D2D8D
:103DF0000E94A31BE82E8111F4C0DF86C88A8F853C
:103E000098890E948328292F22952F70243020F42E
:103E10009F70223028F009C02A50223080F014C050
:103E2000992349F0811107C013C0992321F0F801AB
:103E30009681907F69F0805E883030F409C0803FC1
:103E400038F0815F833020F0C8010E94D203EF2C4C
:103E5000FE2CCBC08091ED0381608093ED03C1C047
:103E60009091E7039D119CCFE1109ACFF80198C083
:103E7000EE2009F49ACF2091ED03822F82958F7066
:103E800090E002978CF08091E7039091E803998786
:103E90008887BB86AA868091EB038C871D862E8738
:103EA000CE0108960E94D20387E0F801A7EEB3E0A6
:103EB00001900D928A95E1F70E941A1E94C090918C
:103EC000ED03292F207F51F487EE93E00E94D20367
:103ED00087E0F40111928A95E9F783C0882309F4F9
:103EE00084C08091E8038C110CC08091E7038D1190
:103EF00008C0E11006C0F8019683C8010E94D203F1
:103F00006AC0C8010E943A29882309F44ECFEE20E6
:103F100009F44BCF2091ED03822F82958F7090E0B2
:103F2000029714F28091E7039091E8039A838983C2
:103F3000BC82AB828091EB038D831E822F83CE01E6
:103F40000196B0CFA21AB30AF8ECAF16B10408F08C
:103F500042C0882309F447C0FE2CEE2009F425CF87
:103F60008091E8038C1129C08091E7038D1125C051
:103F70009091ED0390FD18C0892F82958F70282FA6
:103F800030E02115310581F0F80196832F3031059D
:103F900041F08F5F982F9295907F86818F70892B4B
:103FA0008683C8010E94D20387E0F801A7EEB3E040
:103FB00001900D928A95E1F718C0C8010E943A2934
:103FC000811172CF8091ED0381608093ED03C80170
:103FD0000E94D2030AC087E0F40111928A95E9F7A2
:103FE00004C0F12C02C0FF24F3948F2D6496ECE002
:103FF0000C94C531A0E0B0E0E0E0F0E20C94AD310B
:104000008091110190911201892BA1F080914D04B2
:104010008F5F80934D0481110DC00E94460D90E08A
:104020009093120180931101892B21F40E94BD0D00
:104030000E94022505EC15E07801D0E0C0E087E0A1
:10404000C82ECC0E8C2F0E942D0E8C2D0E942D0E72
:104050008C2F0E94900E8F73F7019081891721F0A9
:104060008083DD24D39401C0D12C8C2D0E94900E2E
:104070008F73F7019781891719F0878381E001C059
:1040800080E0D82ADD290E94810ECF5FFFEFEF1A72
:10409000FF0AC730A1F610925204C0915104CC23FC
:1040A00009F47DC00E94AA1A20914F043091500457
:1040B000AC01421B530B9A019093500480934F0420
:1040C0004F3F510509F018F4452B19F102C02FEFAD
:1040D00030E01092510410924E04E091BF05F0912F
:1040E000C005AF01425F5F4F90E030E080818823E0
:1040F00041F0281718F010829C2F03C0821B808388
:104100003C2F3196E417F50789F7309351049093CB
:104110004E04DD23B1F110924E04E091BF05F09101
:10412000C0058091520490915104A4EDB5E0AF0117
:10413000425F5F4F6EE1E80128813C91321779F0D0
:10414000308131110CC060832C9398819227282FE5
:1041500030E0292B81E0232B09F480E091E03196B7
:1041600011960F5F1F4FE417F50729F7809352044C
:104170009093510480915204CDB7DEB7E8E00C94DF
:10418000C93181E090914E049923A1F38111C3CFED
:104190000E94AA1A9093500480934F04BCCFD1116F
:1041A000F7CF80E0EFCFA6E0B0E0E9EDF0E20C94CD
:1041B000B1310E94AA1A8C0180914B0490914C0459
:1041C0000817190781F019821A820E94AA1A682F0B
:1041D00049815A81792F80E090E00E94640C10930D
:1041E0004C0400934B042696E4E00C94CD31E0E2BD
:1041F000F6E0248130E1231B08F420E02483809141
:104200001F06816080931F060895E0E2F6E0248196
:1042100030E1230F08F42FEF248380911F06816083
:1042200080931F060895A4E0B0E0E9E1F1E20C9468
:10423000B0318033910508F04FC0122F042FF62EB5
:10424000BC01660F771F660F771F6A507B4F44E0F3
:1042500050E0CE0101960E94DA31898183704A8153
:1042600050E044525109282F30E060E9869FC00198
:10427000112482599B4FFC01E40FF51FE0817B81E3
:104280006C81EF110EC0FC01E70FF11DB497E081C6
:10429000E01307C0860F911DFC01B4978081811740
:1042A000D9F0E0E9E29FC001E39F900D112482590B
:1042B0009B4FFC01E40FF51FF082FC01E70FF11D9D
:1042C000B4970083860F911DFC01B4971083F90108
:1042D000E459FB4F81E080832496E5E00C94CC31D7
:1042E000FF920F931F93CF93DF93182F062FF42E77
:1042F000C0E0D0E02F2D402F612FCE010E9413216E
:104300002196C033D105B1F7CDB7DEB7E5E00C9407
:10431000CC31E8E5F4E06083418323E030E042E023
:1043200050E0BF01880F0E946A310895A0E0B0E01C
:10433000ECE9F1E20C94AE31262F30E0A9014E54A5
:104340005A4F7A01FA019081911107C0F70110824A
:10435000CDB7DEB7E7E00C94CA31D82EF2E16F9FFB
:10436000E001112400E010E0F801EC0FFD1FE2571E
:10437000FA4F4081602F8D2D0E9489210F5F1F4FC2
:104380000231110589F7E2CFCF93DF93C82F4BE0BD
:104390006DEF0E94892140E06AE08C2F0E94892104
:1043A0008FE39CE90197F1F700C0000040E060E076
:1043B0008C2F0E94892140E061E08C2F0E9489218E
:1043C00040E066E08C2F0E94892140E06DEF8C2F49
:1043D0000E948921D0E040E06D2F8C2F0E9489211E
:1043E000DF5FD231C1F740E06D2F8C2F0E94892111
:1043F000DF5FD432C1F740E06D2F8C2F0E948921FE
:10440000DF5FD43BC1F74BE06DEF8C2F0E94892119
:1044100041E06AE08C2F0E94892140E06DEF8C2FF3
:104420000E948921DF91CF9108950F931F93CF931D
:10443000DF93082F000FEB0114E21093580480E182
:10444000FE01A9E5B4E001900D928A95E1F723E021
:1044500030E041E150E068E574E0802F0E946A316D
:10446000105F6096143B49F7DF91CF911F910F9138
:10447000089580916C04882329F06EE674E084E747
:104480000E94152210926C0480916D04882329F0FB
:104490006EEF74E087E70E94152210926D04089574
:1044A000A4E0B0E0E6E5F2E20C94A7310E949E3071
:1044B00084E70E94C42187E70E94C42106EF14E02C
:1044C00072E1772EE8E0CE2ED12CEE24E394F12C8D
:1044D0006624639444E050E0B801CE0101960E9446
:1044E000DA312A8130E0C9018497AB80B12C44E2F3
:1044F000A41AB108EC81F0E0B497AC0197FF02C0B8
:10450000495F5F4F63E0559547956A95E1F72981CB
:10451000237030E0729EB001739E700D11246257BB
:104520007A4F4B01840E911CB6010E943B32D70199
:1045300002C0AA0FBB1F8A95E2F7CD01D4019C915E
:10454000892B8C93C501B7FC079653E09595879509
:104550005A95E1F7729EA001739E500D11244257A7
:104560005A4F4A01880E911CC501B6010E943B3288
:10457000A70102C0440F551F8A95E2F7CA01D40172
:104580009C91892B8C93CF01F7FD079643E095957D
:1045900087954A95E1F7729EA001739E500D1124F4
:1045A00042575A4F5A01A80EB11CCF01B6010E94C2
:1045B0003B32F70102C0EE0FFF1F8A95E2F7CF01F1
:1045C000D5019C91892B8C93F901EE54FA4F6082AE
:1045D0000C5F1F4FB5E0063B1B0709F07BCF60E087
:1045E00084E70E94962161E087E70E949621249645
:1045F000EEE00C94C331E0E2F6E0438120E1421B9F
:1046000008F440E08181628190E00E94E12A0895EF
:10461000E0E2F6E0438120E1420F08F44FEF8181B0
:10462000628190E00E94E12A0895E0E2F6E0628172
:1046300020E1621B08F460E08181438190E00E94E8
:10464000E12A0895E0E2F6E0628120E1620F08F4D9
:104650006FEF8181438190E00E94E12A0895E0E2BA
:10466000F6E0818190E04381628108970E94E12A0F
:104670000895E0E2F6E0818190E04381628108964E
:104680000E94E12A089580912006869586958150A2
:1046900009F48EE10E94C82A08958091200686952B
:1046A00086958F5F8F3108F081E00E94C82A0895B7
:1046B0001F920F920FB60F9211248F939F93AF9377
:1046C000BF938091BE05811113C080919203909198
:1046D0009303A0919403B09195034196A11DB11D40
:1046E0008093920390939303A0939403B0939503C4
:1046F000BF91AF919F918F910F900FBE0F901F9020
:104700001895209106012223C9F02091960327FFD6
:1047100015C0262F2695269526952E31C8F4FC0126
:10472000E20FF11D677081E090E001C0880F6A958B
:10473000EAF780959281892382830895FC01069689
:104740002281621301C012823196E817F907C1F77E
:104750000895209106012223C1F02091960327FF9E
:1047600014C0262F2695269526952E3130F5FC016E
:10477000E20FF11D677081E090E001C0880F6A953B
:10478000EAF79281892B82830895FC0132962FEFFC
:1047900030E04191641789F02F3F19F4411101C0B5
:1047A000232F3F5F3630A9F72F3F39F0FC01E20F8E
:1047B000F11D27FDFA95628308950895A3E0B0E006
:1047C000E4EEF3E20C94B3312091BC053091BD05C9
:1047D00028173907A1F09093BD058093BC05E0919F
:1047E000BA05F091BB05309751F024E029839B83F3
:1047F0008A830680F781E02DCE01019609952396E4
:10480000E2E00C94CF31A3E0B0E0E9E0F4E20C94F4
:10481000B3312091B8053091B90528173907A1F0B7
:104820009093B9058093B805E091BA05F091BB0566
:10483000309751F023E029839B838A830680F78198
:10484000E02DCE01019609952396E2E00C94CF313C
:10485000E091BA05F091BB05309729F00190F08105
:10486000E02D0995089580E008954115510511F056
:10487000FA0109950895CF93DF93EC014A855B8592
:104880006E857F850E9435248B810E947F1D8C81DF
:104890000E94861D0E948D1D86E0FE0111928A9560
:1048A000E9F7DF91CF910895CF93DF93EC018D81EC
:1048B00081FD17C082608D839091B5058B81892B16
:1048C0008093B505909199038C81892B80939903EE
:1048D0000E948D1D488559856E857F85CE010E9479
:1048E00035241092B7051092B6058D8180FD03C066
:1048F000CE010E943B24DF91CF9108958091B405B1
:10490000882329F082E20E947B291092B405089541
:10491000A0E2B0E0EEE8F4E20C94B3319FEF9983AB
:104920008A83CE0101960E94E32BA096E2E00C94CC
:10493000CF31882311F0FA0101C0FB0109950895D8
:104940001F93CF93DF93FC01EC57FD4F208162232F
:10495000B9F0EC010E949B2F182F0E949B2F20E89A
:10496000829FC00111247FE7790F612F8091230678
:104970000E941430462F282F672FCE010E941F0F50
:10498000DF91CF911F910895A0E0B0E0EAECF4E24E
:104990000C94AE31EC01FC01EC57FD4F9081692382
:1049A00049F1D09022060091230610912106E12EB4
:1049B000F12C0E949B2F282FC7018C549F4F68E633
:1049C00071E00E943B328E199F0997FD03969595E1
:1049D0008795959587952370612F289F600D1124E9
:1049E0007D2D802F0E941430462F282F672FCE0157
:1049F0000E941F0FCDB7DEB7E7E00C94CA310E94CA
:104A0000C82A08950E94502280E090E00E9401325E
:104A1000863E9E4F21F00E94FD1C0E94B41481E04E
:104A200080931F0648E050E068E170E080E296E085
:104A30000E94E33110921F06809120068C7F11F4B2
:104A40000E94B41408950E949E1A609353047093B8
:104A500054048093550490935604209157042111D7
:104A600009C020912006322F337021F0322F369565
:104A7000369501C030E020917601213091F028F088
:104A8000223099F02330F1F0089510927301609371
:104A90001706709318068093190690931A0681E002
:104AA0000EC0832F0E94220F089530930801809139
:104AB00020068370809307010E94392283E080934F
:104AC0007601089580911F06882351F048E050E058
:104AD00068E170E080E296E00E94073210921F06C3
:104AE00040911706509118066091190670911A06A8
:104AF0002FB7F8948091920390919303A09194031F
:104B0000B09195032FBF841B950BA60BB70B4A974B
:104B1000A105B10510F0109276010895A6E4B0E069
:104B2000E4E9F5E20C94A73185B7806885BF85B7C5
:104B3000806885BF84B7877F84BF0FB6F894A89537
:104B400080916000886180936000109260000FBEC9
:104B500090E080E80FB6F894809361009093610034
:104B60000FBE86EB9AE19093BD028093BC020E9437
:104B7000E5180E9404198091E20084608093E200AD
:104B8000789480911E068823A1F01091E9001F708F
:104B90009091EC00892F817090FD80E8182B109285
:104BA000E9008091E80083FD0E94D4151F701093E6
:104BB000E90082E084BD93E095BD9AEF97BD8093B4
:104BC0006E000E94460D90E09093120180931101B7
:104BD0000E94810E0E94C70EE5ECF5E0A4EDB5E061
:104BE00011921D9225E0E33DF207D1F78EE090E0AF
:104BF0000E9455328093BF059093C005FC010E962C
:104C00001192E817F907E1F789EA8093800089E0BB
:104C10008093810024982C983F988AB18F7C8AB920
:104C20006E98479A8BB180638BB9769A8FE090E04B
:104C30000E94FB316093C1057093C2058093C30548
:104C40009093C40567708FEF689FB001112475952C
:104C500067957595679577277093890060938800AD
:104C600070938B0060938A0070938D0060938C002A
:104C70000E94BD0D80E090E00E940132863E9E4F72
:104C800011F00E94FD1C82E090E00E94F3318093BD
:104C9000E20584E090E00E940132909397038093B4
:104CA000960383E090E00E94F3310E9437298091BF
:104CB000D3050E941C0D0E940225809120068C378E
:104CC00018F080E00E94FF2480912006837011F488
:104CD00010927601809120068C7F8160809320065F
:104CE00089E091E09093BB058093BA0508E110E05C
:104CF00080911E06853009F075C050E4D52ECC2475
:104D0000C39463E0B62E70E1E72EE2E1FE2E8091BF
:104D10001E06853009F05EC080911E06843009F4BD
:104D200036C00E9423258091570481110DC00E9436
:104D3000220F109208018091200683708093070152
:104D40000E943922B0927601C09257041092BE059B
:104D50000FB6F894A895009360000FBED092600043
:104D600083B7817F846083BF83B7816083BF78947A
:104D7000889583B78E7F83BF0FB6F894A8958091EE
:104D80006000886180936000109260000FBE809187
:104D9000BD03882309F4BBCF0E94460D90E0909399
:104DA0001201809311010E94810E0E94C70EE4ED52
:104DB000F5E0119225E0E23EF207D9F70E94FA1FD2
:104DC000E4EDF5E08191811157C185E0E23EF807FD
:104DD000C9F79DCF109299030E945D290E94282453
:104DE000109257040E94FA1F43EEC42E45E0D42EC1
:104DF000A4EDB5E0F60191918D91892795E0E13F11
:104E0000F90719F08823B9F305C0811103C00E9486
:104E1000D3204CC034ED832E35E0932EF12CF401D9
:104E200071904F01F601A080A724B9F1E12CBB24B9
:104E3000B394662463948B2D8A2141F12296EFAEC0
:104E400022972396FFAE23970E94AA1A25969FAF1A
:104E50008EAF259726966FAE269791E08B2D8721F2
:104E600009F490E027969FAF279722964FAD22979F
:104E700023965FAD239724966FAD249725967FAD3B
:104E8000259726968FAD26970E94640CE394BB0C61
:104E9000F6E0EF12D0CFF6017082F394FFEFCF1A55
:104EA000DF0A2EE0F212BBCF0E949E1A8091B60557
:104EB0009091B705892BE9F08091F1059091F20569
:104EC0000E948F1A893C9105A0F08091B6059091BF
:104ED000B705992724E0880F991F2A95E1F7FC016F
:104EE000E85EFE4F208122FD04C08D5E9E4F0E9431
:104EF00054248091B405882369F00E94AA1A209155
:104F0000F3053091F405821B930B8F3F9F4710F4FC
:104F10000E947E240E9423250E9428249091F5055A
:104F2000891721F08093F5050E949E1A80911E0634
:104F3000843009F0DDCE83E08093E9008091E800C1
:104F400082FFD6CE8091E80085FF24C00E94361AE9
:104F500081111EC080E2E82EF12C6E01F1E2CF0E2D
:104F6000D11C09C08091F100F60181936F01F1E03D
:104F7000EF1AF10869F08091E80085FDF3CF809188
:104F8000E8008B778093E8000E94361A882399F313
:104F900091E001C090E08091E8008B778093E80079
:104FA000992309F4A5CE89A1863009F450C0A0F454
:104FB000823009F49DCE58F4882301F1813009F044
:104FC00057C080931B0684E089838EEF4BC08430EA
:104FD00011F18530E1F14CC08930C9F128F48730F6
:104FE00089F18830A1F144C08A3099F18E3F09F0EF
:104FF0003FC0898394E09A838B8335C019828CE00B
:10500000E4ECF1E0DE01129601900D928A95E1F751
:105010008EEF8D8728C080911B06882309F468CE07
:105020008AA1811104C08BA10E941E2961CE81E05A
:1050300090E00BA002C0880F991F0A94E2F70E942B
:10504000F92856CE81E080931D0685E012C084E0E9
:1050500010C081E09AA1911101C080E080931D06EB
:105060009BE099838A83CE0101960E94E32B40CE78
:105070008FEF0E9488243CCEE9BCF9BC09B400FE45
:10508000FDCF8091D8008F7D8093D8008091E00083
:1050900082608093E0008091E00081FDFCCF10925F
:1050A00099030E945D2933CECF92DF92FF920F9336
:1050B0001F93CF93DF936C010091D30580914A0435
:1050C000082BC7E0D0E010E0C8010C2E02C0959577
:1050D00087950A94E2F780FD04C02197A8F7F12C88
:1050E00009C0FC2EB6018C2F0E94C31B0E94E01B3E
:1050F000019799F38F2DDF91CF911F910F91FF9021
:10510000DF90CF900895CF93DF93EC010E94542855
:10511000BE010E94C31B0E94E01BDF91CF91089546
:10512000292F9E3078F5863068F590E036E0239F91
:10513000800D911D1124682F677023E09695879547
:105140002A95E1F7FC01EE0FFF1FE80FF91FEA5067
:10515000FA4F40E050E080E0219130E0062E02C09E
:10516000369527950A94E2F721703327042E01C063
:10517000220F0A94EAF7822B4F5F5F4F43305105AD
:1051800059F7089580E00895292F9E3088F58630DC
:1051900078F590E036E0239F800D911D1124282F93
:1051A000277051E001C0550F2A95EAF723E0969544
:1051B00087952A95E1F7FC01EE0FFF1FE80FF91F15
:1051C000EA50FA4F20E030E070E04081CB01022E3F
:1051D00002C0969587950A94E2F78170819584279D
:1051E0008523842781932F5F3F4F2330310569F753
:1051F0000895A0E2B0E0EFEFF8E20C94B2310E9423
:105200001C0D182F80911B06882391F08FE39CE9D9
:105210000197F1F700C0000085E08983812F0E948B
:10522000250C8A838EEF8B83CE0101960E94E32B9F
:105230001093D305A096E3E00C94CE3121E030E04A
:1052400001C0220F8A95EAF720958091D305822329
:105250000E94F928089521E030E001C0220F8A95CC
:10526000EAF78091D305822B0E94F9280895809354
:105270004A040895FC0124812223D9F08081918180
:105280000E94832892959F70963079F010F4925086
:1052900001C09A50923068F4803F69F018F4883E5B
:1052A00040F409C0843F29F406C0883E20F0813FC5
:1052B00011F080E0089581E008958091060188232F
:1052C00031F08091960387FF02C08EE101C086E035
:1052D000E9ECF3E0DF011D928A95E9F780E090E0C8
:1052E0000E94032480E090E00E94DE231092B50526
:1052F0000E948D1D0895882321F00E947F1D0E9429
:105300008D1D0895882339F09091B505892B8093E0
:10531000B5050E948D1D0895882321F00E94861DE9
:105320000E948D1D0895882339F090919903892B4F
:10533000809399030E948D1D0895882309F455C018
:10534000682F823869F40E94282481FF4EC069E3E7
:1053500087EC93E00E94A9230E948D1D69E30EC093
:10536000833899F40E94282480FF3FC063E587ECCE
:1053700093E00E94A9230E948D1D63E587EC93E0D2
:105380000E9481230E948D1D0895843869F40E9433
:10539000282482FF2AC067E487EC93E00E94A923B7
:1053A0000E948D1D67E4EACF8CEF860F813A30F3BF
:1053B00080E2860F883048F4677081E001C0880F72
:1053C0006A95EAF70E94861DDDCF8BE5860F833054
:1053D00028F480E090E00E9403240895685A6B311D
:1053E00020F480E090E00E94DE230895CF9388238C
:1053F00009F4B4C0C82F8238B1F40E94282481FD7A
:10540000ADC069E387EC93E00E94A9230E948D1D43
:105410002FEF87EE93E0215080409040E1F700C0ED
:10542000000069E317C08338E1F40E94282480FD5E
:1054300095C063E587EC93E00E94A9230E948D1D2F
:105440002FEF81EE94E0215080409040E1F700C0C2
:10545000000063E587EC93E00E9481230E948D1D8C
:105460007DC08438B1F40E94282482FD77C067E4AF
:1054700087EC93E00E94A9230E948D1D2FEF81EEFF
:1054800094E0215080409040E1F700C0000067E4C4
:10549000E1CF8CEF8C0F813AB8F58091060188231B
:1054A000E1F08091960387FF18C0EC2FE695E69512
:1054B000E695F0E0E953FC4F8281282F30E04C2F35
:1054C000477081E090E002C0880F991F4A95E2F78B
:1054D00082239323892B59F411C0E9ECF3E08191E5
:1054E000C81729F023E0EF3CF207C9F707C06C2F7B
:1054F00087EC93E00E9481230E948D1D6C2F87EC26
:1055000093E00E94A923AACF80E28C0F883068F430
:10551000C77081E090E001C0880FCA95EAF79091CA
:105520009903892B8093990399CFEBE5EC0FE33036
:1055300040F4F0E0E557FE4F808190E00E940324A4
:105540000DC0C85ACB3150F4EC2FF0E0EE0FFF1F26
:10555000E257FE4F808191810E94DE23CF91089512
:105560001F93CF93DF93182FEB010E94F62920970A
:1055700041F08FE99FE00197F1F700C0000021970B
:10558000F6CF812F0E949D29DF91CF911F91089521
:10559000909120069370A1F0811102C0946007C021
:1055A0008F3110F0986703C0880F880F982B909365
:1055B00020061092760180911F06816080931F065D
:1055C000089590912006937059F08093210660937E
:1055D00022064093230680911F06816080931F0658
:1055E0000895A0E0B0E0E7EFFAE20C94AB31EC01F3
:1055F0008AE0A82EFE012491222309F4B5C02130AF
:1056000009F044C031968491813059F42296FE010C
:105610008491893319F060E070E091C060E570E03A
:105620008EC0823031F42296FE0184910E94F629C8
:105630008AC0833031F42296FE0184910E949D2914
:1056400082C0843009F07EC02296FE01249180E061
:1056500090E030E0205331092A30310560F4A89EF3
:10566000A001A99E500D1124C901840F951F2196F8
:10567000FE012491EECF009709F465C0EFE9FFE049
:105680003197F1F700C000000197F5CFE22FF0E06D
:10569000EA51FA4FB490822F86958695869590E0D0
:1056A000FC01EA52FA4FE4902770F12C022E02C05E
:1056B000F594E7940A94E2F7F1E0EF22FF24FC016D
:1056C000EA53FA4FC490D12C022E02C0D594C7944D
:1056D0000A94E2F731E0C322DD24FC01EA54FA4FD8
:1056E000049110E002C0159507952A95E2F7017024
:1056F0001127E114F10419F081EE0E94F629C1147A
:10570000D10449F186EE0E94F62989E3B816E9F042
:1057100060E070E08B2D0E94B02AC114D10419F012
:1057200086EE0E949D29E114F10419F081EE0E9499
:105730009D290115110539F060E070E08CE20E94AE
:10574000B02A01C0EF01219655CF60E570E089E3F2
:105750000E94B02AE5CFE9E3BE12DACF60E570E03F
:1057600089E30E94B02ADFCFCDB7DEB7EAE00C9420
:10577000C731EF92FF920F931F93CF93DF937C017A
:105780008B010E94361A811119C0E701011511051C
:10579000A1F08091E80085FD0AC08091E8008E7735
:1057A0008093E8000E94361A882381F307C089910C
:1057B0008093F10001501109E9CF80E0CDB7DEB749
:1057C000E6E00C94CB31CF9320911E06243011F5E6
:1057D000C091E900CF703091EC00232F217030FD93
:1057E00020E8C22B22E02093E9002091E80020FF6E
:1057F0000EC040E050E060E270E00E94B92B8111E1
:1058000010921B068091E8008E778093E800CF709D
:10581000C093E900CF910895A0E0B0E0E2E1FCE29E
:105820000C94AE318C0180917301C82FCC0FCC0F3A
:10583000C80FD5E0DC0FD13308F0D0E36091240627
:105840006695669521E0620F08F46FEF8091170668
:10585000909118060E940A30D82ECD17F0F4EC2E45
:10586000F12CF701EC57FD4F908180917401892351
:1058700091F06091210670912206809123062D2DD2
:105880004C2FF80109950E941430462F282F672FBE
:10589000C7010E941F0FCF5FE0CF81E0D03308F037
:1058A00080E0CDB7DEB7E7E00C94CA31A0E0B0E00D
:1058B000ECE5FCE20C94AA316C0180917301C82FD5
:1058C000CC0FCC0FC80F15E01C0F113308F010E3FC
:1058D000609124066695669580911706909118064A
:1058E0000E940A30D82F80E48D0F0E947A2F90E812
:1058F000F92EF80E8D2F0E947A2F20E8922E980E06
:10590000C11700F5AC2EB12CF501EC57FD4F90817D
:10591000809174018923A1F0609121067091220683
:1059200080912306ED2E0C2F292D4F2DF601099580
:105930000E941430462F282F672FC5010E941F0F89
:10594000CF5FDECF81E0103308F080E0CDB7DEB767
:10595000EBE00C94C6316F927F928F929F92AF9240
:10596000BF92CF92DF92EF920F931F93CF93DF936B
:105970003C0180917301C82FCC0FCC0FC80FD5E02C
:10598000DC0FD13308F0D0E3609124066695809156
:105990001706909118060E940A30182FCD1708F0AC
:1059A00044C08C2E912CF401EC57FD4F90818091D6
:1059B00074018923C1F1F401EE0FFF1FEC5DFD4F6F
:1059C000C080D12C80E7C81AD108F401EE0FFF1F68
:1059D000EB5DFD4FA080B12CE0E2AE1AB108CC9C8B
:1059E0009001CD9C300D300D1124AA9CC001AB9CC0
:1059F000900D900D1124820F931F0E94B02F082F3D
:105A0000609121067091220680912306E12E950176
:105A1000A601F30109950E941430462F282F672F05
:105A2000C4010E941F0FCF5FB9CF81E0D03308F0CF
:105A300080E0DF91CF911F910F91EF90DF90CF9099
:105A4000BF90AF909F908F907F906F900895A0E04F
:105A5000B0E0EDE2FDE20C94AD316C018091730198
:105A6000C82FCC0FCC0FC80FD5E0DC0FD13308F016
:105A7000D0E36091240666958091170690911806F0
:105A80000E940A30182FCD1778F5EC2EF12CF70173
:105A9000EC57FD4F908180917401892319F1F70132
:105AA000EE0FFF1FEB5DFD4F208130E020523109EA
:105AB000F701EE0FFF1FEC5DFD4F408150E04057B6
:105AC0005109609121067091220680912306012FD1
:105AD000F60109950E941430462F282F672FC70121
